:020000040000FA
:100000000A128A11F72F00308A000408840A820736
:10001000003453346534673475346E3464346F346B
:1000200073343A34203400344D3469346E347534CA
:1000300074346F3473343A342034003448346F34B9
:0C0040007234613473343A3420340034DC
:100B70000A128A11DE250A128A1183160313111430
:100B800008000A128A11DE250A128A11831603133D
:100B9000111508000A128A11DE250A128A1170083E
:100BA0008312031393000800F000831203130C1E3A
:100BB000DA2DDB2DD52D700899000800831603135C
:100BC0001419E32DE42DDE2D11081F39031DE92D25
:100BD000EA2DDE2D08008316031398168C120C12D2
:100BE0001812831203139817831603131813831212
:100BF0000313181383160317871133308316031357
:100C0000990018159A018312031318160800F200B0
:100C1000192E720884000A128A1103200A128A11FE
:100C20000A128A11D4250A128A110130F1007108C2
:100C3000F207720884000A128A1103200A128A112C
:100C4000003A031D242E252E092E08000A128A11AF
:100C5000B8250A128A11D030F0000030F1000A12D3
:100C60008A11CA250A128A110730F0000030F100FB
:100C70000A128A11CA250A128A111330F0000030B4
:100C8000F1000A128A11CA250A128A110A128A115F
:100C9000C1250A128A1108008316031788018901E9
:100CA00083160313850186018701880183120313CC
:100CB00085018601870188010A128A11EB250A1233
:100CC0008A11003083120313A3000130A200863082
:100CD000A100A030A0000A128A11A4260A128A11CB
:100CE0000A128A1126260A128A1108000A128A118B
:100CF000DE250A128A118316031391150A128A112E
:100D0000DE250A128A11831203131308F200F3017D
:100D10007208F4007308F5000A128A11DE250A121F
:100D20008A1170037104031D962E972E9B2E831635
:100D3000031391129E2E8316031391161116750834
:100D4000F1007408F00008002830831203139400A7
:100D5000831603139101831203132008A4002108B2
:100D6000A5002208A6002308A70002300310A40D46
:100D7000A50DA60DA70DFF3E031DB62E2708F300F7
:100D80002608F2002508F1002408F0000030F700E2
:100D90007A30F6001230F5000030F4000A128A11A1
:100DA00091270A128A117008FF3E831603139300DD
:100DB00094018715071608000A128A11B8250A122D
:100DC0008A11D030F0000030F1000A128A11CA25D1
:100DD0000A128A110130F0000030F1000A128A1163
:100DE000CA250A128A110330F8000830F70077305C
:100DF000F600F60BF92EF70BF92EF80BF92E0A1266
:100E00008A11B8250A128A11D130F0000030F100A1
:100E10000A128A11CA250A128A110030F000F10064
:100E20000A128A1176260A128A117008F6007608CC
:100E300083120313AD000A128A11C1250A128A1106
:100E40000330F8000830F7007730F600F60B262F55
:100E5000F70B262FF80B262F08000A128A114C26B2
:100E60000A128A110A128A11DC260A128A1101302A
:100E70000A128A1107260A128A11831203132D08F7
:100E80000A128A11D4250A128A110D300A128A1107
:100E9000D4250A128A110C300A128A1107260A1266
:100EA0008A1100300A128A11D4250A128A110D30D3
:100EB0000A128A11D4250A128A1116300A128A11CE
:100EC00007260A128A1100300A128A11D4250A1242
:100ED0008A110D300A128A11D4250A128A11FF30A4
:100EE0000A128A11D4250A128A110D300A128A11A7
:100EF000D4250A128A110B3083120313AA0026305C
:100F0000A9005D30A800A80B832FA90B832FAA0B83
:100F1000832F831203132D088800322F0A128A119F
:100F200000280030FC000030FB000030FA000030E8
:100F3000F90073087204710470040319A02FA12F23
:100F4000EE2FFD01FD0AB12F0130F8000310F00D66
:100F5000F10DF20DF30DF80BA62F0130F800780813
:100F6000FD07F31FB42FB52FA42F0130F800031095
:100F7000F90DFA0DFB0DFC0DF80BB72F7308770276
:100F8000031DCC2F72087602031DCC2F7108750249
:100F9000031DCC2F70087402031CCF2FD02FDF2F1E
:100FA0007008F4027108031C710FF5027208031C2B
:100FB000720FF6027308031C730FF70279140130E5
:100FC0000310F30CF20CF10CF00CFF3E031DE02FAC
:100FD0000130FD02031DED2FEE2FB52F7C08F3002D
:100FE0007B08F2007A08F1007908F000080083120B
:100FF0000313AB01AC01AD0183010A128A112D2F3D
:04400E00F520FF3F5B
:00000001FF
