:020000040000FA
:060000000A128A110C280F
:10000800FE00030EF1000A08F2000A128A11E62A1D
:100018000A128A110F28F801F901FA018312031351
:10002800B401B501B601B701B801B901BA01BB0104
:1000380083010A128A1120280A128A1120220A1220
:100048008A110A128A11D7200A128A110A300A1252
:100058008A1117230A128A11831203133A080A1203
:100068008A110B230A128A110A128A1117230A12FB
:100078008A11831203133A080A128A1158230A12A2
:100088008A110A128A1117230A128A1101300A12D8
:100098008A11AB220A128A118312031339080A1231
:1000A8008A110B230A128A110A128A1117230A12BB
:1000B8008A118312031339080A128A1158230A1263
:1000C8008A110A128A1117230A128A1101300A1298
:1000D8008A11AB220A128A11831203133B080A12EF
:1000E8008A110B230A128A110A128A1117230A127B
:1000F8008A11831203133B080A128A1158230A1221
:100108008A110A128A1117230A128A1102308312DD
:100118000313B3000430B200B930B100B10B922818
:10012800B20B9228B30B92289928413083120313FB
:100138003506031DA028A128A428851505152528FE
:1001480042303506031DA928AA28AD2885150511B2
:10015800252843303506031DB228B328B628851153
:100168000515252844303506031DBB28BC28BF28A3
:100178008511051125288519C228C628831203135D
:100188008515C9288312031385110519CC28D02891
:10019800831203130515D328831203130511252889
:1001A8000A128A110C280A128A113E230A128A118D
:1001B800D030F3000030F4000A128A1121230A1209
:1001C8008A110030F300F4000A128A1121230A125E
:1001D8008A110A128A1147230A128A11D130F300B0
:1001E8000030F4000A128A1121230A128A11013000
:1001F800F3000030F4000A128A1155220A128A11FB
:10020800730883120313A2002208BB007F30A200E8
:100218002208BB050130F3000030F4000A128A11ED
:1002280055220A128A11730883120313A2002208A6
:10023800B9007F30A2002208B9050030F300F400AD
:100248000A128A1155220A128A117308831203139B
:10025800A2002208BA003F30A2002208BA050A12FA
:100268008A1135230A128A11023083120313A4005B
:100278000430A300B930A200A20B4029A30B4029E7
:10028800A40B402947290800003083120313AB0050
:100298000030AA000030A9000030A800230822047A
:1002A80021042004031959295A29A729AC01AC0AA9
:1002B8006A290130F3000310A00DA10DA20DA30DB2
:1002C800F30B5F290130F3007308AC07A31F6D29F6
:1002D8006E295D290130F3000310A80DA90DAA0DA0
:1002E800AB0DF30B702923082702031D852922086B
:1002F8002602031D852921082502031D85292008BA
:100308002402031C8829892998292008A402210885
:10031800031C210FA5022208031C220FA602230892
:10032800031C230FA702281401300310A30CA20CEE
:10033800A10CA00CFF3E031D99290130AC02031D3E
:10034800A629A7296E292B08A3002A08A200290894
:10035800A1002808A0000800283083120313940085
:10036800831603139101831203132D08F4002E083A
:10037800F5002F08F6003008F70002300310F40DDE
:10038800F50DF60DF70DFF3E031DC2297708A300F2
:100398007608A2007508A1007408A0000030A70024
:1003A8003D30A6000930A5000030A4000A128A11C9
:1003B80048210A128A11831203132008FF3E83166C
:1003C8000313930094018715071608000A128A116F
:1003D8003E230A128A11D030F3000030F4000A12CA
:1003E8008A1121230A128A110030F300F4000A123C
:1003F8008A1121230A128A110030F300F4000A122C
:100408008A1121230A128A113030F3000030F400D7
:100418000A128A1121230A128A111930F3000030B6
:10042800F4000A128A1121230A128A110A128A1167
:1004380035230A128A1108008316031788018901D7
:1004480083160313850186018701880187178312A4
:10045800031385018601870188018B170B170A1280
:100468008A11CA220A128A11003083120313B000BB
:100478000130AF008630AE00A030AD000A128A11FC
:10048800B0210A128A110A128A1185220A128A11C7
:100498000A128A11EA210A128A1183120313B5017A
:1004A80008000A128A11FE220A128A1183160313FF
:1004B80091150A128A11FE220A128A118312031355
:1004C8001308F500F6017508A0007608A1000A12C5
:1004D8008A11FE220A128A1173037404031D752AF5
:1004E800762A7A2A8316031391127D2A8316031318
:1004F80091161116831203132108F4002008F30043
:1005080008000A128A113E230A128A11D030F30019
:100518000030F4000A128A1121230A128A110730C6
:10052800F3000030F4000A128A1121230A128A11FA
:100538001330F3000030F4000A128A1121230A1242
:100548008A110A128A1135230A128A110800F50045
:10055800BD2A750884000A128A1150230A128A11CA
:100568000A128A1117230A128A110130F40074083A
:10057800F507750884000A128A1150230A128A1195
:10058800003A031DC82AC92AAD2A08008316031396
:1005980098168C160C1218128312031398178316C8
:1005A80003131813831203131813831603178711E1
:1005B800193083160313990018159A01831203132F
:1005C80018160800831203138C1EEB2AEC2AF72A4C
:1005D8000A128A112B230A128A11F000700883125A
:1005E8000313B5008C1272088A00710E8300FE0E88
:1005F8007E0E0900831603131419032B042BFE2AFD
:1006080011081F39031D092B0A2BFE2A0800F400C4
:100618007408F30004300310F30CFF3E031D0F2B86
:100628007308303E0800F300831203130C1E1D2BC1
:100638001E2B182B7308990008000A128A11FE2233
:100648000A128A1173088312031393000800831295
:100658000313981C302B312B332B181218161A0839
:1006680008000A128A11FE220A128A11831603133D
:10067800111508000A128A11FE220A128A1183161D
:100688000313111408000A128A11FE220A128A1191
:10069800831603139114080003308A000408840A9F
:1006A800820700343A340034F30073080F39303EBF
:0206B800080038
:04400E00F520FF3F5B
:00000001FF
