:020000040000FA
:060000000A128A110C280F
:10000800FE00030EF1000A08F2000A128A11DE2A25
:100018000A128A110F28F801F901FA018312031351
:10002800B101B201B301B401B501B601B701B8011C
:1000380083010A128A115C290A128A1136230A12CC
:100048008A11D030F3000030F4000A128A11192303
:100058000A128A110030F300F4000A128A111923D7
:100068000A128A110A128A113F230A128A11D13000
:10007800F3000030F4000A128A1119230A128A11B7
:100088000130F3000030F4000A128A114D220A12DE
:100098008A11730883120313A2002208FA007F3022
:1000A800A2002208FA050130F3000030F4000A1219
:1000B8008A114D220A128A11730883120313A200AF
:1000C8002208F8007F30A2002208F8050030F3006B
:1000D800F4000A128A114D220A128A117308831237
:1000E8000313A2002208F9003F30A2002208F905F4
:1000F8000A128A112D230A128A110230831203135D
:10010800A4000430A300B930A200A20B8928A30BD5
:100118008928A40B8928902808000030831203132B
:10012800AB000030AA000030A9000030A800230866
:100138002204210420040319A228A328F028AC01D2
:10014800AC0AB3280130F3000310A00DA10DA20DD5
:10015800A30DF30BA8280130F3007308AC07A31F05
:10016800B628B728A6280130F3000310A80DA90D5A
:10017800AA0DAB0DF30BB92823082702031DCE28BF
:1001880022082602031DCE2821082502031DCE2899
:1001980020082402031CD128D228E1282008A40220
:1001A8002108031C210FA5022208031C220FA60206
:1001B8002308031C230FA702281401300310A30CE3
:1001C800A20CA10CA00CFF3E031DE2280130AC02DA
:1001D800031DEF28F028B7282B08A3002A08A2003F
:1001E8002908A1002808A00008004D308312031335
:1001F8003206031D002901295B290A300A128A11D7
:100208000F230A128A1179080A128A1103230A1283
:100218008A110A128A110F230A128A1179080A12FE
:100228008A1150230A128A110A128A110F230A12FC
:100238008A1101300A128A11A3220A128A11780837
:100248000A128A1103230A128A110A128A110F2329
:100258000A128A1178080A128A1150230A128A117E
:100268000A128A110F230A128A1101300A128A11FE
:10027800A3220A128A117A080A128A1103230A127F
:100288008A110A128A110F230A128A117A080A128D
:100298008A1150230A128A110A128A110F230A128C
:1002A8008A114E30F600760883120313B200080054
:1002B8000A128A11E3210A128A110A128A112020CD
:1002C8000A128A110A128A11F9200A128A11413077
:1002D800831203133206031D7229732976298515A3
:1002E8000515612942303206031D7B297C297F29A7
:1002F80085150511612943303206031D8429852996
:10030800882985110515612944303206031D8D2978
:100318008E29912985110511612985199429982912
:100328008312031385159B2983120313851105195D
:100338009E29A229831203130515A52983120313E5
:10034800051161290A128A110C2828308312031317
:100358009400831603139101831203132D08F400EC
:100368002E08F5002F08F6003008F70002300310B9
:10037800F40DF50DF60DF70DFF3E031DBB297708AB
:10038800A3007608A2007508A1007408A000003038
:10039800A7003D30A6000930A5000030A4000A12CD
:1003A8008A1191200A128A11831203132008FF3E32
:1003B8008316031393009401871507160800831604
:1003C80003178801890183160313850186018701B4
:1003D8008801871783120313850186018701880125
:1003E8008B170B170A128A11C2220A128A110030BF
:1003F80083120313B0000130AF008630AE00A03086
:10040800AD000A128A11A9210A128A110A128A1148
:100418007D220A128A1183120313B2010A128A1169
:1004280018220A128A1108000A128A1136230A129F
:100438008A11D030F3000030F4000A128A1119230F
:100448000A128A110030F300F4000A128A111923E3
:100458000A128A110030F300F4000A128A111923D3
:100468000A128A113830F3000030F4000A128A1197
:1004780019230A128A110030F300F4000A128A11B3
:1004880019230A128A110A128A112D230A128A11B3
:1004980008000A128A11F6220A128A118316031317
:1004A80091150A128A11F6220A128A11831203136D
:1004B8001308F500F6017508A0007608A1000A12D5
:1004C8008A11F6220A128A1173037404031D6D2A15
:1004D8006E2A722A831603139112752A8316031340
:1004E80091161116831203132108F4002008F30053
:1004F80008000A128A1136230A128A11D030F30032
:100508000030F4000A128A1119230A128A110730DE
:10051800F3000030F4000A128A1119230A128A1112
:100528001330F3000030F4000A128A1119230A125A
:100538008A110A128A112D230A128A110800F5005D
:10054800B52A750884000A128A1148230A128A11EA
:100558000A128A110F230A128A110130F400740852
:10056800F507750884000A128A1148230A128A11AD
:10057800003A031DC02AC12AA52A080083160313BE
:1005880098168C160C1218128312031398178316D8
:1005980003131813831203131813831603178711F1
:1005A800193083160313990018159A01831203133F
:1005B80018160800831203138C1EE32AE42AEF2A74
:1005C8000A128A1123230A128A11F0007008831272
:1005D8000313B2008C1272088A00710E8300FE0E9B
:1005E8007E0E0900831603131419FB2AFC2AF62A27
:1005F80011081F39031D012B022BF62A0800F400ED
:100608007408F30004300310F30CFF3E031D072B9E
:100618007308303E0800F300831203130C1E152BD9
:10062800162B102B7308990008000A128A11F6225B
:100638000A128A11730883120313930008008312A5
:100648000313981C282B292B2B2B181218161A0861
:1006580008000A128A11F6220A128A118316031355
:10066800111508000A128A11F6220A128A11831635
:100678000313111408000A128A11F6220A128A11A9
:10068800831603139114080003308A000408840AAF
:10069800820700343A340034F30073080F39303ECF
:0206A800080048
:04400E00F520FF3F5B
:00000001FF
