:020000040000FA
:100000000A128A11F72F00308A000408840A820736
:10001000003453346534673475346E3464346F346B
:1000200073343A34203400344D3469346E347534CA
:1000300074346F3473343A342034003448346F34B9
:0C0040007234613473343A3420340034DC
:100B4E000A128A11D6250A128A11831603139114DA
:100B5E0008000A128A11D6250A128A118316031367
:100B6E00111408000A128A11D6250A128A11831648
:100B7E000313111508000A128A11D6250A128A11BA
:100B8E0070088312031393000800F00083120313FE
:100B9E000C1ED22DD32DCD2D700899000800831672
:100BAE0003131419DB2DDC2DD62D11081F39031D4F
:100BBE00E12DE22DD62D08008316031398168C1204
:100BCE000C1218128312031398178316031318139B
:100BDE0083120313181383160317871133308316EA
:100BEE000313990018159A0183120313181608009F
:100BFE00F200112E720884000A128A1103200A12C2
:100C0E008A110A128A11CC250A128A110130F100BA
:100C1E007108F207720884000A128A1103200A1260
:100C2E008A11003A031D1C2E1D2E012E08000A12D9
:100C3E008A11B0250A128A11D030F0000030F1006E
:100C4E000A128A11C2250A128A110730F0000030EA
:100C5E00F1000A128A11C2250A128A111330F0000D
:100C6E000030F1000A128A11C2250A128A110A12E4
:100C7E008A11B9250A128A110800831603178801F2
:100C8E0089018316031385018601880183120313DC
:100C9E008501860188010A128A11E3250A128A113A
:100CAE00003083120313A3000130A2008630A1008E
:100CBE00A030A0000A128A119A260A128A110A126C
:100CCE008A111E260A128A1108000A128A11D625C6
:100CDE000A128A118316031391150A128A11D62548
:100CEE000A128A11831203131308F200F301720819
:100CFE00F4007308F5000A128A11D6250A128A1119
:100D0E0070037104031D8C2E8D2E912E83160313EA
:100D1E009112942E83160313911611167508F10075
:100D2E007408F00008002830831203139400831611
:100D3E0003139101831203132008A4002108A500B8
:100D4E002208A6002308A70002300310A40DA50D4B
:100D5E00A60DA70DFF3E031DAC2E2708F300260897
:100D6E00F2002508F1002408F0000030F7007A3078
:100D7E00F6001230F5000030F4000A128A11232713
:100D8E000A128A117008FF3E831603139300940112
:100D9E008715071608000A128A1144260A128A11AC
:100DAE000A128A1189270A128A1101300A128A112F
:100DBE00FF250A128A11831203132A08303E0A12E3
:100DCE008A11CC250A128A110D300A128A11CC25ED
:100DDE000A128A110C300A128A11FF250A128A1180
:100DEE00831203132808303E0A128A11CC250A12E8
:100DFE008A110D300A128A11CC250A128A11163068
:100E0E000A128A11FF250A128A1183120313290866
:100E1E00303E0A128A11CC250A128A110D300A129E
:100E2E008A11CC250A128A11831203132A0888000C
:100E3E00D72E0A128A1100280030FC000030FB0069
:100E4E000030FA000030F900730872047104700467
:100E5E000319322F332F802FFD01FD0A432F01304E
:100E6E00F8000310F00DF10DF20DF30DF80B382F05
:100E7E000130F8007808FD07F31F462F472F362F55
:100E8E000130F8000310F90DFA0DFB0DFC0DF80BF7
:100E9E00492F73087702031D5E2F72087602031D19
:100EAE005E2F71087502031D5E2F70087402031CFD
:100EBE00612F622F712F7008F4027108031C710FDD
:100ECE00F5027208031C720FF6027308031C730FEF
:100EDE00F702791401300310F30CF20CF10CF00C44
:100EEE00FF3E031D722F0130FD02031D7F2F802F49
:100EFE00472F7C08F3007B08F2007A08F10079088E
:100F0E00F00008000A128A11B0250A128A11D03098
:100F1E00F0000030F1000A128A11C2250A128A115D
:100F2E000030F000F1000A128A11C2250A128A114D
:100F3E000A128A11A7250A128A11D130F000003048
:100F4E00F1000A128A11C2250A128A110130F0002C
:100F5E000030F1000A128A116C260A128A117008EA
:100F6E00F600760883120313AA007F30F600760887
:100F7E00AA050130F0000030F1000A128A116C2629
:100F8E000A128A117008F600760883120313A8005D
:100F9E007F30F6007608A8050030F000F1000A1246
:100FAE008A116C260A128A117008F60076088312CE
:100FBE000313A9007F30F6007608A9050A128A11DC
:100FCE00B9250A128A110330F8000830F70077307D
:100FDE00F600F60BF02FF70BF02FF80BF02F0800A2
:100FEE0083120313A801A901AA0183010A128A110F
:020FFE00D22EF1
:04400E00F520FF3F5B
:00000001FF
