:020000040000FA
:060000000A128A110C280F
:10000800FE00030EF1000A08F2000A128A11AC2A57
:100018000A128A110F28F801F901FA018312031351
:10002800B401B501B601B701B801B901BA01BB0104
:1000380083010A128A1120280A128A11E9210A1258
:100048008A110A128A11A0200A128A110A300A1289
:100058008A11EB220A128A11831203133A080A1230
:100068008A11DF220A128A110A128A11EB220A1255
:100078008A11831203133A080A128A1122230A12D8
:100088008A110A128A11EB220A128A1101300A1205
:100098008A1171220A128A118312031339080A126B
:1000A8008A11DF220A128A110A128A11EB220A1215
:1000B8008A118312031339080A128A1122230A1299
:1000C8008A110A128A11EB220A128A1101300A12C5
:1000D8008A1171220A128A11831203133B080A1229
:1000E8008A11DF220A128A110A128A11EB220A12D5
:1000F8008A11831203133B080A128A1122230A1257
:100108008A110A128A11EB220A128A11023083120A
:100118000313B3000430B200B930B100B10B922818
:10012800B20B9228B30B92289928831203138515D2
:1001380025280A128A110C280A128A1108230A1281
:100148008A11D030F3000030F4000A128A11F52227
:100158000A128A110030F300F4000A128A11F522FB
:100168000A128A110A128A1111230A128A11D1302D
:10017800F3000030F4000A128A11F5220A128A11DB
:100188000130F3000030F4000A128A111B220A120F
:100198008A11730883120313A2002208BB007F3060
:1001A800A2002208BB050130F3000030F4000A1257
:1001B8008A111B220A128A11730883120313A200E0
:1001C8002208B9007F30A2002208B9050030F300E8
:1001D800F4000A128A111B220A128A117308831268
:1001E8000313A2002208BA003F30A2002208BA0571
:1001F8000A128A11FF220A128A110230831203138B
:10020800A4000430A300B930A200A20B0929A30B53
:100218000929A40B092910290800003083120313A7
:10022800AB000030AA000030A9000030A800230865
:100238002204210420040319222923297029AC014E
:10024800AC0A33290130F3000310A00DA10DA20D53
:10025800A30DF30B28290130F3007308AC07A31F83
:100268003629372926290130F3000310A80DA90DD6
:10027800AA0DAB0DF30B392923082702031D4E29BC
:1002880022082602031D4E2921082502031D4E2996
:1002980020082402031C5129522961292008A4029C
:1002A8002108031C210FA5022208031C220FA60205
:1002B8002308031C230FA702281401300310A30CE2
:1002C800A20CA10CA00CFF3E031D62290130AC0258
:1002D800031D6F29702937292B08A3002A08A200BB
:1002E8002908A1002808A000080028308312031359
:1002F8009400831603139101831203132D08F4004D
:100308002E08F5002F08F6003008F7000230031019
:10031800F40DF50DF60DF70DFF3E031D8B2977083B
:10032800A3007608A2007508A1007408A000003098
:10033800A7003D30A6000930A5000030A4000A122D
:100348008A1111210A128A11831203132008FF3E11
:1003580083160313930094018715071608000A12E1
:100368008A1108230A128A11D030F3000030F400F1
:100378000A128A11F5220A128A110030F300F400D9
:100388000A128A11F5220A128A110030F300F400C9
:100398000A128A11F5220A128A113030F30000304D
:1003A800F4000A128A11F5220A128A111930F30090
:1003B8000030F4000A128A11F5220A128A110A1270
:1003C8008A11FF220A128A1108008316031788016E
:1003D8008901831603138501860187018801871720
:1003E8008312031385018601870188018B170B1778
:1003F8000A128A1190220A128A11003083120313FA
:10040800B0000130AF008630AE00A030AD000A1257
:100418008A1179210A128A110A128A114B220A12A8
:100428008A110A128A11B3210A128A1108000A12C3
:100438008A11D2220A128A118316031391150A12FD
:100448008A11D2220A128A11831203131308F500A3
:10045800F6017508A0007608A1000A128A11D222B6
:100468000A128A1173037404031D3B2A3C2A402A8A
:10047800831603139112432A831603139116111638
:10048800831203132108F4002008F30008000A125D
:100498008A1108230A128A11D030F3000030F400C0
:1004A8000A128A11F5220A128A110730F300003065
:1004B800F4000A128A11F5220A128A111330F30085
:1004C8000030F4000A128A11F5220A128A110A125F
:1004D8008A11FF220A128A110800F500832A75087A
:1004E80084000A128A111A230A128A110A128A111E
:1004F800EB220A128A110130F4007408F507750816
:1005080084000A128A111A230A128A11003A031D5A
:100518008E2A8F2A732A08008316031398168C16BE
:100528000C12181283120313981783160313181347
:1005380083120313181383160317871119308316B0
:100548000313990018159A0183120313181608004B
:10055800831203138C1EB12AB22ABD2A0A128A11E9
:10056800C4220A128A11F000700883120313B5001E
:100578008C1272088A00710E8300FE0E7E0E09002E
:1005880083120313981CC92ACA2ACC2A18121816CF
:100598008C1ECF2AD02ACC2A1A08080083160313E7
:1005A8001419D72AD82AD22A11081F39031DDD2A7F
:1005B800DE2AD22A0800F4007408F300043003107D
:1005C800F30CFF3E031DE32A7308303E0800F300D6
:1005D800831203130C1EF12AF22AEC2A73089900DD
:1005E80008000A128A11D2220A128A117308831289
:1005F8000313930008000A128A11D2220A128A11E0
:1006080083160313111508000A128A11D2220A123E
:100618008A1183160313111408000A128A11D222B0
:100628000A128A11831603139114080003308A00F2
:100638000408840A820700343A340034F30073084B
:060648000F39303E0800EE
:04400E00F520FF3F5B
:00000001FF
