:020000040000FA
:100000000A128A11F12F00308A000408840A82073C
:100010000034523465346C346F346A342034003424
:040020003A3400343A
:100A5E00F00070080F39303E08000A128A116F2517
:100A6E000A128A1183160313911408000A128A11AE
:100A7E006F250A128A1183160313111408000A1225
:100A8E008A116F250A128A11831603131115080095
:100A9E000A128A116F250A128A1170088312031323
:100AAE0093000800F000831203130C1E5F2D602DBF
:100ABE005A2D700899000800F1007108F0000430FA
:100ACE000310F00CFF3E031D672D7008303E08002A
:100ADE00831603131419742D752D6F2D11081F39DC
:100AEE00031D7A2D7B2D6F2D080083160313981688
:100AFE008C120C12181283120313981783160313F9
:100B0E001813831203131813831603178711333028
:100B1E0083160313990018159A01831203131816DE
:100B2E000800F200AA2D720884000A128A1103200E
:100B3E000A128A110A128A1159250A128A110130D3
:100B4E00F1007108F207720884000A128A1103205C
:100B5E000A128A11003A031DB52DB62D9A2D0800E2
:100B6E000A128A113D250A128A11D030F000003087
:100B7E00F1000A128A114F250A128A110730F0006D
:100B8E000030F1000A128A114F250A128A11133011
:100B9E00F0000030F1000A128A114F250A128A1154
:100BAE000A128A1146250A128A11080083160317A3
:100BBE00880189018316031385018601880183123A
:100BCE0003138501860188010A128A117C250A12F7
:100BDE008A11003083120313AC000130AB00863053
:100BEE00AA00A030A9000A128A116E260A128A11D2
:100BFE000A128A11B7250A128A110A128A11382688
:100C0E000A128A1108000A128A116F250A128A1115
:100C1E008316031391150A128A116F250A128A116F
:100C2E00831203131308F200F3017208F400730821
:100C3E00F5000A128A116F250A128A1170037104C7
:100C4E00031D2A2E2B2E2F2E831603139112322EB6
:100C5E0083160313911611167508F1007408F0002F
:100C6E0008000A128A113D250A128A11D030F000AE
:100C7E000030F1000A128A114F250A128A11003033
:100C8E00F000F1000A128A114F250A128A11003063
:100C9E00F000F1000A128A114F250A128A11303023
:100CAE00F0000030F1000A128A114F250A128A1143
:100CBE001930F0000030F1000A128A114F250A1285
:100CCE008A110A128A1146250A128A110800283042
:100CDE0083120313940083160313910183120313DB
:100CEE002908AD002A08AE002B08AF002C08B00072
:100CFE0002300310AD0DAE0DAF0DB00DFF3E031D56
:100D0E00802E3008F3002F08F2002E08F1002D0877
:100D1E00F0000030F7007A30F6001230F5000030A7
:100D2E00F4000A128A11A6260A128A117008FF3ED2
:100D3E0083160313930094018715071608000030DD
:100D4E00FC000030FB000030FA000030F9007308A0
:100D5E007204710470040319B52EB62E032FFD0113
:100D6E00FD0AC62E0130F8000310F00DF10DF20D44
:100D7E00F30DF80BBB2E0130F8007808FD07F31FBA
:100D8E00C92ECA2EB92E0130F8000310F90DFA0D36
:100D9E00FB0DFC0DF80BCC2E73087702031DE12E14
:100DAE0072087602031DE12E71087502031DE12EF5
:100DBE0070087402031CE42EE52EF42E7008F40263
:100DCE007108031C710FF5027208031C720FF602F4
:100DDE007308031C730FF702791401300310F30C20
:100DEE00F20CF10CF00CFF3E031DF52E0130FD024E
:100DFE00031D022F032FCA2E7C08F3007B08F2007E
:100E0E007A08F1007908F00008000A128A113D25CF
:100E1E000A128A11D030F0000030F1000A128A1145
:100E2E004F250A128A110030F000F1000A128A11C1
:100E3E004F250A128A110A128A1134250A128A11B2
:100E4E00D130F0000030F1000A128A114F250A123B
:100E5E008A110130F0000030F1000A128A110A26C0
:100E6E000A128A117008F600760883120313A8007E
:100E7E007F30F6007608A8050130F0000030F10052
:100E8E000A128A110A260A128A117008F6007608CA
:100E9E0083120313A6007F30F6007608A6050030F5
:100EAE00F000F1000A128A110A260A128A1170083D
:100EBE00F600760883120313A7003F30F60076087B
:100ECE00A7050A128A1146250A128A110330F80064
:100EDE000830F7007730F600F60B732FF70B732FF1
:100EEE00F80B732F08000A128A11DD250A128A11D7
:100EFE000A128A110C270A128A1101300A128A115B
:100F0E0098250A128A118312031327080A128A11CE
:100F1E0063250A128A110A128A1159250A128A1198
:100F2E008312031327080A128A112F250A128A1117
:100F3E000A128A1159250A128A1108300A128A11C8
:100F4E0098250A128A118312031326080A128A118F
:100F5E0063250A128A110A128A1159250A128A1158
:100F6E008312031326080A128A112F250A128A11D8
:100F7E000A128A1159250A128A1108300A128A1188
:100F8E0098250A128A118312031328080A128A114D
:100F9E0063250A128A110A128A1159250A128A1118
:100FAE008312031328080A128A112F250A128A1196
:100FBE000A128A1159250A128A110D300A128A1143
:100FCE0059250A128A118312031388017F2F0A12E0
:100FDE008A11002883120313A001A101A201A3010B
:100FEE00A401A501A601A701A80183010A128A1175
:020FFE007A2F48
:04400E00F520FF3F5B
:00000001FF
